{
  "contractName": "Casino",
  "abi": [
    {
      "constant": true,
      "inputs": [],
      "name": "numbers",
      "outputs": [
        {
          "name": "",
          "type": "uint256"
        }
      ],
      "payable": false,
      "stateMutability": "view",
      "type": "function"
    },
    {
      "constant": true,
      "inputs": [],
      "name": "maxBidLimit",
      "outputs": [
        {
          "name": "",
          "type": "uint256"
        }
      ],
      "payable": false,
      "stateMutability": "view",
      "type": "function"
    },
    {
      "constant": true,
      "inputs": [],
      "name": "totalBetters",
      "outputs": [
        {
          "name": "",
          "type": "uint256"
        }
      ],
      "payable": false,
      "stateMutability": "view",
      "type": "function"
    },
    {
      "constant": true,
      "inputs": [],
      "name": "totalMoney",
      "outputs": [
        {
          "name": "",
          "type": "uint256"
        }
      ],
      "payable": false,
      "stateMutability": "view",
      "type": "function"
    },
    {
      "constant": true,
      "inputs": [],
      "name": "minBet",
      "outputs": [
        {
          "name": "",
          "type": "uint256"
        }
      ],
      "payable": false,
      "stateMutability": "view",
      "type": "function"
    },
    {
      "inputs": [
        {
          "name": "mBet",
          "type": "uint256"
        },
        {
          "name": "nums",
          "type": "uint256"
        },
        {
          "name": "maxBidL",
          "type": "uint256"
        }
      ],
      "payable": false,
      "stateMutability": "nonpayable",
      "type": "constructor"
    },
    {
      "constant": false,
      "inputs": [
        {
          "name": "number",
          "type": "uint256"
        },
        {
          "name": "amount",
          "type": "uint256"
        }
      ],
      "name": "bet",
      "outputs": [],
      "payable": false,
      "stateMutability": "nonpayable",
      "type": "function"
    },
    {
      "constant": false,
      "inputs": [
        {
          "name": "ad",
          "type": "address"
        },
        {
          "name": "amount",
          "type": "uint256"
        }
      ],
      "name": "endBetting",
      "outputs": [],
      "payable": false,
      "stateMutability": "nonpayable",
      "type": "function"
    }
  ],
  "bytecode": "0x608060405234801561001057600080fd5b506040516060806105ba83398101806040528101908080519060200190929190805190602001909291908051906020019092919050505033600560006101000a81548173ffffffffffffffffffffffffffffffffffffffff021916908373ffffffffffffffffffffffffffffffffffffffff16021790555082600081905550816001819055508060048190555050505061050b806100af6000396000f300608060405260043610610083576000357c0100000000000000000000000000000000000000000000000000000000900463ffffffff16806327722f6a1461008857806362a69db8146100b35780636ffcc719146100de578063715aa40a1461011557806387da21e3146101405780639619367d1461016b578063d159d4fc14610196575b600080fd5b34801561009457600080fd5b5061009d6101e3565b6040518082815260200191505060405180910390f35b3480156100bf57600080fd5b506100c86101e9565b6040518082815260200191505060405180910390f35b3480156100ea57600080fd5b5061011360048036038101908080359060200190929190803590602001909291905050506101ef565b005b34801561012157600080fd5b5061012a61033b565b6040518082815260200191505060405180910390f35b34801561014c57600080fd5b50610155610341565b6040518082815260200191505060405180910390f35b34801561017757600080fd5b50610180610347565b6040518082815260200191505060405180910390f35b3480156101a257600080fd5b506101e1600480360381019080803573ffffffffffffffffffffffffffffffffffffffff1690602001909291908035906020019092919050505061034d565b005b60015481565b60045481565b80600054811015151561020157600080fd5b6004546002541115151561021457600080fd5b600054821015151561022557600080fd5b600660008481526020019081526020016000206060604051908101604052808581526020013373ffffffffffffffffffffffffffffffffffffffff16815260200184815250908060018154018082558091505090600182039060005260206000209060030201600090919290919091506000820151816000015560208201518160010160006101000a81548173ffffffffffffffffffffffffffffffffffffffff021916908373ffffffffffffffffffffffffffffffffffffffff1602179055506040820151816002015550505060026000815480929190600101919050555081600360008282540192505081905550816007600085815260200190815260200160002060008282540192505081905550505050565b60025481565b60035481565b60005481565b6000806000806000600560009054906101000a900473ffffffffffffffffffffffffffffffffffffffff1673ffffffffffffffffffffffffffffffffffffffff163373ffffffffffffffffffffffffffffffffffffffff161415156103b157600080fd5b600454600254111515156103c457600080fd5b6001600a438115156103d257fe5b06019450600660008681526020019081526020016000209350600092505b83805490508310156104d6576007600086815260200190815260200160002054848481548110151561041e57fe5b90600052602060002090600302016002015481151561043957fe5b04915081600354029050838381548110151561045157fe5b906000526020600020906003020160010160009054906101000a900473ffffffffffffffffffffffffffffffffffffffff1673ffffffffffffffffffffffffffffffffffffffff166108fc829081150290604051600060405180830381858888f193505050501580156104c8573d6000803e3d6000fd5b5082806001019350506103f0565b505050505050505600a165627a7a72305820e6a472c0fd79c09e879ffdc94a824863e4a28e4cb86c1e16e931777e100886900029",
  "source": "pragma solidity ^0.4.17;\n//import './safeMath.sol';\n\nimport \"zeppelin/contracts/math/SafeMath.sol\";\n//import 'zeppelin/contracts/token/ERC20.sol';\ncontract Casino {\n    using SafeMath for uint8;\n\n    uint public minBet;\n    uint public numbers;\n    uint public totalBetters;\n    uint public totalMoney;\n    uint public maxBidLimit;\n    address owner;\n    constructor(uint mBet,uint nums,uint maxBidL){\n        owner = msg.sender;\n        minBet = mBet;\n        numbers = nums;\n        maxBidLimit = maxBidL;\n    }\n    struct Bet{\n        uint number;\n        address better;\n        uint amount;\n    }\n    mapping(uint=>Bet[]) betMapping;\n    mapping(uint=>uint) numberMoneyMapping;\n    modifier ownerOnly(){\n        require(msg.sender == owner);\n        _;\n    }\n    modifier maxBetterLimit(){\n        require( totalBetters <= maxBidLimit);\n        _;\n    }\n    modifier minBidLimit(uint am){\n        require(am >= minBet);\n        _;\n    }\n    function bet(uint number,uint amount) minBidLimit(amount) maxBetterLimit public  {\n        require(amount >= minBet);\n        betMapping[number].push(Bet(number,msg.sender,amount));\n        // Bet storage b = betMapping[number].pop;\n        totalBetters++;\n        totalMoney += amount;\n        numberMoneyMapping[number]+=amount;\n        // return (b.number,b.ad,b.amount);\n    }\n    function endBetting(address ad,uint amount) ownerOnly maxBetterLimit public {\n        uint256 numberGenerated = block.number % 10 + 1; // This isn't secure\n        Bet[] winners = betMapping[numberGenerated];\n        for(uint i=0;i<winners.length;i++){\n            uint percent = winners[i].amount / (numberMoneyMapping[numberGenerated]);\n            uint money = totalMoney * percent;\n            winners[i].better.transfer(money);\n        }\n        /*\n        betMapping[numberGenerated] = Bet(number,msg.sender,amount);\n        Bet b = betMapping[number];\n        return (b.number,b.ad,b.amount);*/\n    }\n}",
  "sourcePath": "/Users/vikas.magar/Desktop/Vikas/blockchain/dapps/casino-ethereum/contracts/Casino.sol",
  "compiler": {
    "name": "solc",
    "version": "0.4.23+commit.124ca40d.Emscripten.clang"
  },
  "schemaVersion": "2.0.0",
  "updatedAt": "2018-05-07T02:36:41.937Z"
}